:100000006F00806B00000000760700002A070000E8
:1000100000000000000000000000000000000000E0
:1000200000000000000000000000000000000000D0
:10003000380B0000000000002A070000000000004C
:100040002A0700002A0700002A0700002A070000EC
:100050006A0B00002A0700002A0700002A07000098
:100060002A0700002A0700002A0700002A070000CC
:100070002A0700002A0700002A0700002A070000BC
:100080002A0700002A0700002A0700002A070000AC
:100090002A0700002A0700002A07000000000000CD
:1000A000634E050263C305042E86AA857D5515C2DD
:1000B00085466378B6006356C00006068606E36C84
:1000C000B6FE014563E4C500918D558D858205829C
:1000D000F5FA82808682C93F2E8582823305A04050
:1000E0006347B000B305B040C1B7B305B0408682E6
:1000F000653F3305A0408282868263C7050063495D
:1001000005005D372E858282B305B040E35B05FEB6
:100110003305A040513F3305B0408282000099C6AC
:10012000014363D7B600B685054319A00143AE86E7
:100130008D8EBA87B383E600B382F340634A5004DE
:1001400093C7F6FFFD87FD8EBA9681473386F5404B
:10015000B382F6006342C00493C7F5FFFD87FD8DAF
:10016000B6953385E540630403026372B7029307D3
:10017000A002A38FF5FE9386F5FF637AD700238F45
:10018000F5FE9386E5FF6374D700A38EF5FE8280AB
:100190008507A38FC7FE4DB73306F500034606005B
:1001A00085072380C2005DB72A832E8501CE832276
:1001B000060001475C426348A700238007004842CD
:1001C0003305554082800C461442FD15AE96E386F9
:1001D000D7FE9386170054C2B306E30083C6060019
:1001E00005072380D700F9B7B70700E09387470FCB
:1001F0009843137707086DFF372730781307870870
:10020000B70600E098C39386460F7147A54571561F
:100210009C4293F70708EDFF3353E5001373F30097
:10022000B3B76500B307F04093F7770293870703EE
:100230009A97A20793E757089CC27117E31AC7FC65
:10024000828037F700E01C473E951C47898FE3CE3C
:1002500007FE8280011106CE22CC26CA02C02A8364
:100260006357050089E685473303A0403EC0058AF1
:100270001304100619C213041004BA8459141A8501
:100280003AC81AC22EC61AC4B135A5472243B24590
:1002900042479376F50F63E1A7069386060393F62C
:1002A000F60F938714002380D4001A853AC83EC6FF
:1002B0002EC4DD3B9246A245B24742472A8363FBE8
:1002C000B602824699C69306D0022380D700938750
:1002D00024003385E7409356F501AA962380070052
:1002E00085860146FD17634BD600F2406244D24436
:1002F00005618280BE8461B7A29655B7B305C70079
:1003000083C2070003C30500050623805500238030
:100310006700C9BFB757004003D7474193870740DD
:100320001377071019CB03D74701C1669386F6EF01
:10033000758F239AE7000545828003D7470113771D
:10034000074019CB03D74701C1669386F6BF758F67
:10035000239AE7000945828003D7470113770720D6
:1003600019CB03D74701C1669386F6DF758F239AB1
:10037000E7000D45828003D74701014593164701E9
:1003800063DB060003D74701FD769386F67F758F02
:10039000239AE70011458280B70700E083A7470F43
:1003A0008280B70700E09387470F9843211106CA60
:1003B00022C826C61377070C9306000C630BD700E0
:1003C00002C42E84DDED9C4389C793F7070891E3AF
:1003D000E1370144D24022854244B2446101828027
:1003E000B30794401D476353F700BA87B706100060
:1003F000370700E085061307470F1043937506087B
:10040000A5E111C62AC23EC0413F124582473400D1
:100410000D47B685634DF704A246370700E00D4649
:10042000232CD70EB3069500014783C206000507AB
:100430003383E500230053006385E7008506E31658
:10044000C7FE13874700136707F82304E100A2469D
:10045000370700E0BE94232AD70EE3C384F89DBF7C
:10046000FD16C1FE1C4393E7070C1CC39DB73386E2
:10047000E4002A960346060005078506A38FC6FEFC
:1004800051BF8144D9BF611122C006C22E84113FE1
:1004900092402285024421018280011122CC03A4D2
:1004A00081C1B757004026CA32C206CEAA842EC0E8
:1004B00036C422869387074083D68701898AD1E68E
:1004C00083D6070037060300050693E6061023903F
:1004D000D700B75600409386064083D5460183D7A0
:1004E0008601C207CD8FF18FE399C7FEDC40BDC7FF
:1004F00005466383C70A83C7A400FD17E207E187A7
:100500009396370063D3071481448147B756004060
:1005100022869386064003D74601137707086308AF
:10052000071601451247850493F4F40FBA9703C7E1
:100530000700B75700402398E7405DEDE13B4DEDE4
:100540002247A687E3E4E4FC45A89306F6FF09E604
:10055000D1335DE115454DA03686B9BF83D7840000
:1005600037560040A285860793F7F70F2398F600C9
:10057000B706070013060640938626080355460172
:1005800083578601C207C98FF58FE386D7F6938715
:10059000F5FFDDDDBE85DDB703D68400A285935768
:1005A0007600998B93E7070F2398F600B757004022
:1005B0009387074083D64701A18AADCE32C6993BC7
:1005C00005ED3246B7570040938707401376F60F84
:1005D000B70607002398C700A2853E8693862608A3
:1005E0000355460183578601C207C98FF58F63986B
:1005F000D7040D33E30105F0B75600403707070075
:10060000938606401307470803D6460183D7860121
:10061000C207D18FF98F6398E708B757004003D717
:100620000740F2406244136707202390E740D2441A
:10063000056182809386F5FF81DDB685A5BF93872E
:10064000F5FFE38705F0BE8561BF0247A2853356FB
:10065000D70042063757004041821307074023184E
:10066000C700035647011376060801CE36C83EC6BA
:100670005531C246E11649F1B247FD17E207E1875D
:1006800051B51386F5FFE38505ECB285D9BF130795
:10069000F6FF01EA3EC0BD398247E31505E815457E
:1006A00051B53A868DBD9307F4FF09E4A53135F5C0
:1006B0001545A5B73E8489BF97010020938141D499
:1006C00013814140096513050588731005308D4677
:1006D0001705000013050593558D731055301385CC
:1006E00041C19385810201466356B50010C11105D1
:1006F000E34EB5FE170500001305C558938541C0AC
:10070000138641C16388C500144194C11105910548
:10071000E39AC5FEB7F700E0154798C3856793874E
:10072000879F7390173473002030732510346D3C0D
:1007300073250030553C732530347D3473252034C7
:100740006534B70700E09387470F9843137707088E
:100750006DFF0567130757A898C3B70700E0938795
:10076000470F9843137707086DFF37B7AAAA1307F7
:1007700037A898C301A0371702401C47B70680006E
:10078000D58F1CC7AA8703C7070001E73385A74099
:1007900082808507CDBF130141FAA2CAA6C886CCC4
:1007A0002AC02EC23284B68409E59307801A02C299
:1007B0003EC002CA8347040013071400A30FF100D0
:1007C00081EBE64056445245C6441301C105828080
:1007D0003AC6930650026380D70212468247854587
:1007E0001305F1018297324726C43A84D247A244C6
:1007F000AA973ECAC1B783471400930600031307A4
:100800002400A30FF1003EC66393D7083A848146C3
:100810000147A54519A893172700BA97860705042D
:100820003307F6008347F4FF8546138607FD1375EB
:10083000F60FE3F2A5FE99C2A30FF1003AC8E14614
:1008400063D3E60036C81306C00681466398C70026
:100850008347040085460504A30FF1000346F10118
:10086000930740066305F60663E7C7029307800512
:100870006301F60A93073006630EF60A39D2124670
:10088000824785451305F101829726C485B79306F3
:10089000000236C6A5BF93075007630AF602930706
:1008A00080076308F60693073007E31AF6FC938780
:1008B000440084403ACC3EC42685E9356247AA8587
:1008C0006357E008C2463246381826851DA0938734
:1008D00044003EC49DC61306B6F8181093361600A1
:1008E00088400146A945BD32C24632463818AA851D
:1008F0000810EFF0DF821246AA85281882478297F7
:10090000F5B59307500718108546E30BF6FC8146B2
:10091000C1BF8840130686FA9387440018108546A5
:1009200013361600C1453EC43532C2463246AA854A
:1009300038187DBF938744003EC49C40C24632466F
:10094000A30FF100381885451305F1015DB7124674
:1009500026856DB7111132C62A862EC436C8814548
:1009600034001305604806C23ACA3ECC36C025356D
:100970009240710182802A96AA876393C700828081
:100980002380B7008507D5BF81476313F6008280B7
:100990003387F500834607003307F50085072300FA
:1009A000D700E5B7B7270240054798C3B7170240FD
:1009B0003707080123A207001307170898C3370752
:1009C0009F0098C7984393166700E3DD06FED8435F
:1009D000B7160240719B13672700D8C32147DC423A
:1009E000B18BE39EE7FEB70700E023AC070E1307C9
:1009F000000823AAE70E8280397106DE22DC26DA9F
:100A0000553720008565938445C34146938545C38A
:100A100022859D3F1307007D23ACE1C0B71702403C
:100A2000984B37062000B706E0FF518F98CB984BC4
:100A3000FD16758F98CBD84FB706C0FBF516518FB2
:100A4000D8CF984F1367170198CFB7070140D84305
:100A5000758FD8C3D843FD769386F60FD8C3B717E2
:100A6000014098431377F7F098C398431367070D35
:100A700098C39843758F98C398438566938606D02C
:100A8000558F98C3B757004003D74740C166938638
:100A900006FC758F136707032392E74061771307FE
:100AA0008702239EE74003D7074013671700239070
:100AB000E740EFF03F86654693850401280823AEA2
:100AC00081C0D935E546300881452285F93283C792
:100AD00001C213060040BE85138581C23EC2613D3E
:100AE00083A7C1C13EC09DC78D46138601C1814504
:100AF0003E85653205E102458D461386C1C08145BC
:100B0000693A09E9024593060040138681C29305BC
:100B10000004613292450565130505C6253D83C76E
:100B200001C23775DC02130505C093C7F7FF2380A8
:100B3000F1C2EFF00FF161BF51113EC0B7F700E015
:100B40003AC2984B36C4B166938606B8369798CBAE
:100B500023A2070083A741C2A246850723A2F1C2B0
:100B60001247824731017300203021113EC0B70780
:100B70000140938707403AC2D84B2ACA2EC832C6D2
:100B800036C4418B09E7DC4B93F70702B5CF370733
:100B90000140B7170140130707409C47544BC18AD7
:100BA00099C2C14654CB544B93F6060281C69306B4
:100BB000000254CB838641C013D737009583098B3D
:100BC000858B3366F7008A068567D18E938707C7C2
:100BD000B697328783C641C183C707000D45B697D4
:100BE00093F6F70FE207E187238AF1C06357F50216
:100BF00083D721C2F1168507C207C1872391F1C2AD
:100C0000238AD1C02382E1C05245C2453246A24662
:100C1000124782476101730020307555E3D4A7FE67
:100C200083D721C29106FD17C207C1872391F1C264
:100C3000C1BF0000801A0600000000003C00010057
:100C4000D0070000AED480A81FD300408D14200030
:100C5000A1C8DA128101D9F1DB40A4A6AF000000DF
:100C600066696C6C203D203078253032580A0000CF
:100C700000FF0100010000FFFF0000010001FF0074
:100C800003000000000000002200070021007F0098
:00000001FF
