:100000006F002046000000001E050000D204000022
:1000100000000000000000000000000000000000E0
:1000200000000000000000000000000000000000D0
:10003000A209000000000000D2040000000000003F
:10004000D2040000D2040000D2040000D204000058
:10005000D2040000D2040000D2040000D204000048
:10006000D2040000D2040000D2040000D204000038
:10007000D2040000D2040000D2040000D204000028
:10008000D2040000D2040000D2040000D204000018
:10009000D2040000D2040000D204000000000000DE
:1000A0002A86014593F6150091C232958581060690
:1000B000F5F9828000000000634E050263C3050469
:1000C0002E86AA857D5515C285466378B60063568F
:1000D000C00006068606E36CB6FE014563E4C50073
:1000E000918D558D85820582F5FA82808682C93F81
:1000F0002E8582823305A0406347B000B305B0402F
:10010000C1B7B305B0408682653F3305A040828207
:10011000868263C70500634905005D372E858282AC
:10012000B305B040E35B05FE3305A040513F330506
:10013000B0408282000099C6014363D7B600B685FD
:10014000054319A00143AE868D8EBA87B383E600BE
:10015000B382F340634A500493C7F6FFFD87FD8ED8
:10016000BA9681473386F540B382F6006342C004F5
:1001700093C7F5FFFD87FD8DB6953385E540630494
:1001800003026372B7029307A002A38FF5FE938662
:10019000F5FF637AD700238FF5FE9386E5FF63743E
:1001A000D700A38EF5FE82808507A38FC7FE4DB7CB
:1001B0003306F5000346060085072380C2005DB7BD
:1001C0002A832E8501CE8322060001475C426348C4
:1001D000A7002380070048423305554082800C4623
:1001E0001442FD15AE96E386D7FE9386170054C2DF
:1001F000B306E30083C6060005072380D700F9B7DE
:10020000B70700E09387470F9843137707086DFF00
:100210003727307813078708B70600E098C393861E
:10022000460F7147A54571569C4293F70708EDFFAD
:100230003353E5001373F300B3B76500B307F04021
:1002400093F77702938707039A97A20793E75708D4
:100250009CC27117E31AC7FC8280011106CE22CC22
:1002600026CA02C02A836357050089E685473303FF
:10027000A0403EC0058A1304100619C213041004DE
:10028000BA8459141A853AC81AC22EC61AC4B93D7E
:10029000A5472243B24542479376F50F63E1A7068F
:1002A0009386060393F6F60F938714002380D400F9
:1002B0001A853AC83EC62EC421359246A245B24799
:1002C00042472A8363FBB602824699C69306D00250
:1002D0002380D700938724003385E7409356F501A8
:1002E000AA962380070085860146FD17634BD6003A
:1002F000F2406244D24405618280BE8461B7A29616
:1003000055B7B305C70083C2070003C30500050640
:100310002380550023806700C9BFB7160240904E66
:100320009147B397A700D18F93E717009CCE13771F
:10033000F50F85670A079387C7B1BA979843198164
:100340001375C53F1443BD47B397A70093C7F7FF85
:10035000F58F1CC31C43B395A500DD8D0CC38280B3
:10036000B70700E083A7470F8280B70700E09387B5
:10037000470F9843211106CA22C826C61377070CD7
:100380009306000C630BD70002C42E84DDED9C4362
:1003900089C793F7070891E3E1370144D2402285EA
:1003A0004244B24461018280B30794401D476353C5
:1003B000F700BA87B7061000370700E08506130775
:1003C000470F104393750608A5E111C62AC23EC027
:1003D000413F1245824734000D47B685634DF7040F
:1003E000A246370700E00D46232CD70EB306950032
:1003F000014783C2060005073383E500230053004D
:100400006385E7008506E316C7FE13874700136779
:1004100007F82304E100A246370700E0BE94232A30
:10042000D70EE3C384F89DBFFD16C1FE1C4393E7BE
:10043000070C1CC39DB73386E4002A9603460600CA
:1004400005078506A38FC6FE51BF8144D9BF611140
:1004500022C006C22E84113F92402285024421010F
:100460008280970100209381A1F9138141400965A1
:1004700013050588731005308D4617050000130518
:1004800065B8558D73105530138541C0938581C073
:1004900001466356B50010C11105E34EB5FE1705C0
:1004A00000001305E568938541C0138641C0638849
:1004B000C500144194C111059105E39AC5FEB7F733
:1004C00000E0154798C393070077739017347300C3
:1004D0002030732510342D337325003015337325E8
:1004E0003034393B73252034213BB70700E0938734
:1004F000470F9843137707086DFF0567130757A841
:1005000098C3B70700E09387470F9843137707080E
:100510006DFF37B7AAAA130737A898C301A03717EA
:1005200002401C47B7068000D58F1CC7AA8703C7A7
:10053000070001E73385A74082808507CDBF1301FF
:1005400041FAA2CAA6C886CC2AC02EC23284B6847A
:1005500009E59307001C02C23EC002CA834704009B
:1005600013071400A30FF10081EBE64056445245F7
:10057000C6441301C10582803AC6930650026380C7
:10058000D7021246824785451305F101829732470B
:1005900026C43A84D247A244AA973ECAC1B7834729
:1005A00014009306000313072400A30FF1003EC6B6
:1005B0006393D7083A8481460147A54519A8931744
:1005C0002700BA97860705043307F6008347F4FF30
:1005D0008546138607FD1375F60FE3F2A5FE99C253
:1005E000A30FF1003AC8E14663D3E60036C813060C
:1005F000C00681466398C70083470400854605040A
:10060000A30FF1000346F101930740066305F606C8
:1006100063E7C702930780056300F60A9307300675
:10062000630DF60A39D21246824785451305F1015A
:10063000829726C485B79306000236C6A5BF9307E6
:100640005007630AF602930780076307F6069307CD
:100650003007E31AF6FC9387440084403ACC3EC44A
:100660002685E9356247AA856356E008C2463246C8
:10067000381826851DA0938744003EC495C61306EE
:10068000B6F818109336160088400146A945F13691
:10069000C24632463818AA850810713C1246AA850F
:1006A000281882478297FDB5930750071810854692
:1006B000E30CF6FC8146C9BF8840130686FA93878F
:1006C00044001810854613361600C1453EC47136E5
:1006D000C2463246AA853818C1B7938744003EC443
:1006E0009C40C2463246A30FF100381885451305D9
:1006F000F10165B7124626856DB7111132C62A86FB
:100700002EC436C8814534001305E04406C23ACAF7
:100710003ECC36C02D35924071018280B727024011
:10072000054798C3B71702403707080123A20700FF
:100730001307170898C337079F0098C79843931665
:100740006700E3DD06FED843B7160240719B1367CE
:100750002700D8C32147DC42B18BE39EE7FEB707F1
:1007600000E023AC070E1307000823AAE70E8280DF
:10077000311106C822C626C43714024045375C4CE6
:10078000A545094593E717005CCC413E1C48294725
:10079000B7060E0093E717001CC81C488506F99B96
:1007A0001CC8B70700402394E7021307E00F239605
:1007B000E70203D7C70113678707239EE70003D724
:1007C0000700136707082390E70003D707021367A2
:1007D00007302390E70203D7470113671700239AD6
:1007E000E70003D70700136717002390E70023AE45
:1007F00007021C4C41771307F77F93E707201CCCB7
:100800005C40F98F5CC05C403757922413074792D5
:100810005CC05C4493E707205CC45C4493F7F7DF5B
:100820005CC4B72701409387074023A6070223A88B
:10083000070223AA0702D8C798CB9847558F98C7B5
:1008400098471367870098C79847218B75FF98478B
:100850001367470098C737270140130707401C4715
:10086000918BF5FF914513050010453C914513050B
:1008700000206534914513053070453481451305DA
:100880003050613C814513053060413C8145130582
:1008900030406134B7470240938707809843C16670
:1008A000558F98C39843B706FCFFFD16758F98C304
:1008B00098438176FD16758F98C3B7F700E03167CE
:1008C00023A007001307F7B798CB23A4070023A2A0
:1008D00001C098431367770098C3B7E700E0056746
:1008E00023A0E710B7270140938707401547D8DBBF
:1008F0009847B7064000558F98C79843098B75DF16
:10090000E4479307003F0146C204C18063E39706B2
:10091000930750021306C01263FD97048565138583
:10092000459D81479385459D1303B004835625005B
:100930001387170063E196060356650063EDC40450
:100940008A070A07AE972E9703D4070003550700BE
:10095000B385964032C2018D36C0EFF06FF4124677
:100960008246B385C640EFF0AFF53306A4004206D9
:1009700041820565A685130545B04133B7F600E011
:100980009846B7376E01938707603E979C46998FCC
:10099000E3CE07FE81BFBA871105E31967F8014668
:1009A000C9BF51113EC0B7F700E03AC2984B36C4F8
:1009B000B166938606B8369798CB23A2070083A723
:1009C00041C0A246850723A2F1C0124782473101E8
:1009D000730020300000F1030400EE030800EA0376
:1009E0000C00E5031000E0031400DA031800D30341
:1009F0001C00CB032000C2032400B7032800AC0373
:100A00002C009F03300090033400800338006F03F4
:100A10003C005C03400048034400330348001C03CF
:100A20004C0004035000EB025400D1025800B602FF
:100A30005C009B0260007F02640063026800470262
:100A40006C002C02700010027400F5017800DB01CC
:100A50007C00C1018000A801840090018800790118
:100A60008C00630190004F0194003B019800280125
:100A70009C001601A0000501A400F500A800E600F6
:100A8000AC00D800B000CB00B400BF00B800B30089
:100A9000BC00A800C0009E00C4009500C8008C00E7
:100AA000CC008400D0007C00D4007500D8006E001B
:100AB000DC006800E0006200E4005C00E800570031
:100AC000EC005300F0004E00F4004A00F80046002D
:100AD000FC00420000013F0004013C000801390015
:100AE0000C013600100133001401310018012E00F2
:100AF0001C012C0020012A002401280028012600C6
:100B00002C0125006164633A2025642020202020E8
:100B10002074656D703A2025640A000000080140C9
:0C0B200000000000001001400014014023
:00000001FF
