:100000006F00A00F00000000B201000066010000B8
:1000100000000000000000000000000000000000E0
:1000200000000000000000000000000000000000D0
:1000300066010000000000006601000000000000F2
:100040006601000066010000660100006601000014
:100050006601000066010000660100006601000004
:1000600066010000660100006601000066010000F4
:1000700066010000660100006601000066010000E4
:1000800066010000660100006601000066010000D4
:10009000660100006601000066010000000000002B
:1000A000B70700E09387470F9843137707086DFF62
:1000B0003727307813078708B70600E098C3938680
:1000C000460F7147A54571569C4293F70708EDFF0F
:1000D0003353E5001373F300B3B76500B307F04083
:1000E00093F77702938707039A97A20793E7570836
:1000F0009CC27117E31AC7FC82809701002093818C
:1001000021301381414009651305058873100530BE
:100110008D46170500001305E5EE558D731055301B
:10012000138541C0938541C001466356B50010C197
:100130001105E34EB5FE13054022938541C0138699
:1001400041C06388C500144194C111059105E39A2B
:10015000C5FEB7F700E0154798C393074021739099
:10016000173473002030732510341D3F7325003081
:10017000053F732530342D37732520341537B707E5
:1001800000E09387470F9843137707086DFF0567D3
:10019000130757A898C3B70700E09387470F984302
:1001A000137707086DFF37B7AAAA130737A898C3B4
:1001B00001A0371702401C47B7068000D58F1CC727
:1001C000B7270240054798C3B71702403707080111
:1001D00023A207001307170898C337079F0098C783
:1001E000984393166700E3DD06FED843B716024036
:1001F000719B13672700D8C32147DC42B18BE39E74
:10020000E7FEB70700E023AC070E1307000823AA98
:10021000E70E8280711106C06537824001451101E9
:0402200082800000D8
:00000001FF
